:020000040000fa
:080000000002040000000000f2
:020000040000fa
:100008009a0200009a0200009a0200009a02000078
:100018009a0200009a0200009a0200009a02000068
:100028009a0200009a0200009a0200009a02000058
:100038009a0200009a0200009a0200009a02000048
:020000040000fa
:020000040000fa
:100400000f8020000e7f24000e01880000000000f5
:10041000000020000000e000020032000001200087
:10042000200288000c000700603520000100200039
:1004300011000700000020000000e0000200320070
:1004400000000200000000009e0202000000000008
:100450000040da000000fe004440a9000000200037
:100460000000e0000300320000002000a00188002e
:100470004440a80000000600910188008000780038
:100480000000eb0015003700e280400032a0b4000d
:100490009101ba00e280400032a0b4009102ba009b
:1004a000e280400032a0b4000002eb00472bde00e7
:1004b000f507b200602ce10004003a000059eb009f
:1004c0008301e900fdff3e00040037006128e100e0
:1004d000010032000082eb00040007001101ba00a5
:1004e0000200e000e8ff3a00000006003159ba00bf
:1004f0008301e9000c0032002159ba008301e900b0
:10050000080032000400e00003003a00e2804000ee
:1005100032a0b400f5ff370011d9ba008301e90019
:10052000faff3a008100e800e180400032a0b40008
:0c053000000006000040da000000fe00a1
:020000040000fa
:10053c000200fa00843e2000040f7800110007002e
:10054c002900070036000700390007001416800048
:10055c0062026200e00f520002003a00c462a9007d
:10056c0001003700c462a8001e00780037000700a5
:10057c00c482a8001e00780034000700c482a900c1
:10058c00f2ff37000000fa00353a800004e02f003b
:10059c0084826200b402200005027200343a8800a2
:1005ac00253a800004fe2f0004826200243a880061
:1005bc0094022000343a8800243a80000460a100a0
:1005cc000470a100243a880000000000153a800055
:1005dc000402200004826200e00f5200fbff320094
:1005ec000080fa00000006000000fa0084312000b0
:1005fc00240e8800840c2000b40e8800840c20008b
:10060c00c40e8800c881a800c801a800c8a1a80011
:10061c00c821a800c1e1a8000080fa000000060073
:10062c000000fa00c022a8000080fa0000000600ba
:10063c000000fa00c062a900c082a900c462a80030
:10064c00c482a8000080fa00000006000600fa0030
:10065c00200798000002eb00040f78000a00370016
:10066c002e02900014079800030037001e02900021
:10067c000402e900140798001e029000e00f5200db
:10068c00faff3a001e0fe8002e0290009e0278003e
:10069c00848f5200f2ff39000080fa00000006003f
:020000040000fa
:0406ac00000000004a
:020000040000fa
:0200000401f009
:04000000cf0000002d
:020000040000fa
:0200000401f009
:04000400cf00000029
:020000040000fa
:0200000401f009
:0400080007000000ed
:020000040000fa
:0200000401f009
:04000c0001000000ef
:020000040000fa
:0200000401f009
:0400100043000000a9
:020000040000fa
:0200000401f009
:040014005f00000089
:020000040000fa
:0200000401f009
:04001800f7000000ed
:020000040000fa
:0200000401f009
:04001c00dfff000002
:00000001FF
