:020000040000fa
:080000000002040000000000f2
:020000040000fa
:10040000af9020000e7724000e018800000000004d
:1004100000012000200288000c0007006067200017
:100420000100200011000700000020000000e00093
:100430000200320000000200000000000606020078
:10044000000000000040da000000fe004440a90067
:10045000000020000000e000030032000000200047
:10046000a00188004440a800000006009101880017
:10047000800078000000eb0015003700e2804000ab
:1004800032a0b4009101ba00e280400032a0b40072
:100490009102ba00e280400032a0b4000002eb00fa
:1004a000472bde00f507b200602ce10004003a00a3
:1004b0000059eb008301e900fdff3e000400370016
:1004c0006128e100010032000082eb000400070017
:1004d0001101ba000200e000e8ff3a000000060047
:1004e0003159ba008301e9000c0032002159ba00e9
:1004f0008301e900080032000400e00003003a0034
:10050000e280400032a0b400f5ff370011d9ba00f4
:100510008301e900faff3a008100e800e180400031
:1005200032a0b400000006000040da000000fe0027
:10053000200f800000000600a00f800000000600d1
:020000040000fa
:100008009402000094020000940200009402000090
:100018009402000094020000940200009402000080
:100028009402000094020000940200009402000070
:10003800f204000094020000940200009402000000
:100048009402000094020000940200009402000050
:100058009402000094020000940200009402000040
:100068006805000094020000940200009402000059
:100078009402000094020000940200009402000020
:100088009402000094020000940200009402000010
:100098009402000094020000940200009402000000
:1000a80094020000940200009402000094020000f0
:1000b80094020000940200009402000094020000e0
:1000c80094020000940200009402000094020000d0
:1000d80094020000940200009402000094020000c0
:1000e80094020000940200009402000094020000b0
:1000f80094020000940200009402000094020000a0
:10010800940200009402000094020000940200008f
:10011800940200009402000094020000940200007f
:10012800940200009402000094020000940200006f
:10013800940200009402000094020000940200005f
:10014800940200009402000094020000940200004f
:10015800940200009402000094020000940200003f
:10016800940200009402000094020000940200002f
:10017800940200009402000094020000940200001f
:10018800940200009402000094020000940200000f
:1001980094020000940200009402000094020000ff
:1001a80094020000940200009402000094020000ef
:1001b80094020000940200009402000094020000df
:1001c80094020000940200009402000094020000cf
:1001d80094020000940200009402000094020000bf
:1001e80094020000940200009402000094020000af
:0801f8009402000094020000d3
:020000040000fa
:10020800940200009402000094020000940200008e
:10021800940200009402000094020000940200007e
:10022800940200009402000094020000940200006e
:10023800f2040000940200009402000094020000fe
:10024800940200009402000094020000940200004e
:10025800940200009402000094020000940200003e
:100268006805000094020000940200009402000057
:10027800940200009402000094020000940200001e
:10028800940200009402000094020000940200000e
:1002980094020000940200009402000094020000fe
:1002a80094020000940200009402000094020000ee
:1002b80094020000940200009402000094020000de
:1002c80094020000940200009402000094020000ce
:1002d80094020000940200009402000094020000be
:1002e80094020000940200009402000094020000ae
:1002f800940200009402000094020000940200009e
:10030800940200009402000094020000940200008d
:10031800940200009402000094020000940200007d
:10032800940200009402000094020000940200006d
:10033800940200009402000094020000940200005d
:10034800940200009402000094020000940200004d
:10035800940200009402000094020000940200003d
:10036800940200009402000094020000940200002d
:10037800940200009402000094020000940200001d
:10038800940200009402000094020000940200000d
:1003980094020000940200009402000094020000fd
:1003a80094020000940200009402000094020000ed
:1003b80094020000940200009402000094020000dd
:1003c80094020000940200009402000094020000cd
:1003d80094020000940200009402000094020000bd
:1003e80094020000940200009402000094020000ad
:0803f8009402000094020000d1
:020000040000fa
:0200000401f009
:04001c00dfff000002
:020000040000fa
:0200000401f009
:04001800f7000000ed
:020000040000fa
:0200000401f009
:040014005f00000089
:020000040000fa
:0200000401f009
:0400100043000000a9
:020000040000fa
:0200000401f009
:04000c0001000000ef
:020000040000fa
:0200000401f009
:0400080007000000ed
:020000040000fa
:0200000401f009
:04000400cf00000029
:020000040000fa
:0200000401f009
:04000000cf0000002d
:020000040000fa
:100540000000fa00253a800004fe2f0004826200b9
:10055000243a8800353a800004e02f00848262004b
:10056000b402200004827200343a8800243a8000e9
:100570000460a1000470a100243a8800000000007b
:10058000153a80000402200004826200e00f52004d
:10059000fbff32000080fa00000006000000fa00b5
:1005a00084312000240e880004192000b40e880035
:1005b00004192000c40e8800c881a800c801a80042
:1005c000c8a1a800c821a800c1e1a8000080fa00c5
:1005d000000006000000fa00c062a900c082a90065
:1005e000c442a800c462a8000080fa00000006000f
:1005f0000000fa00153a8000f40d20000483620028
:10060000640420007505200027742000844b7800c6
:10061000854b7800864b7800e534800004fe2f007f
:10062000048262000410a000e4348800e5348000f5
:10063000f40f2e00848262000430200004827200d5
:10064000e4348800f534800004fe2f000482620048
:100650000420a000f43488000535800004fe2f003b
:10066000048262005400b300043588000535800020
:10067000f40f2e0084826200046020000482720065
:10068000043588001535800004fe2f0004826200c6
:100690007400b30014358800153a8000040420006b
:1006a0000483720064042000750520002774200074
:1006b000844b7800854b7800864b78000080fa00e8
:1006c000000006000000fa00c842a800c862a800a6
:1006d000c882a800040f80000480a1000490a1003b
:1006e00004a0a100040f8800e1e1a900e0e1a90055
:1006f000e0c1a800e041a800040f80000480a10030
:100700000490a00004a0a000040f88000002eb00e9
:10071000240f880004102000340f8800e2e1a800b4
:10072000140f80000440a0000450a1000460a10048
:10073000140f8800c8a2a800c8c2a800c8e2a80078
:10074000840f80000480a1000490a10004a0a100f7
:10075000840f8800f1e1a900f0e1a900f0c1a80030
:10076000f041a800840f80000480a1000490a00044
:1007700004a0a000840f88000002eb00a40f8800f2
:1007800004102000b40f8800f2e1a800940f80004c
:100790000440a0000450a1000460a100940f880050
:1007a0000080fa00000006000000fa00c842a8001d
:1007b000c862a800c882a800040f80000480a100bd
:1007c0000490a10004a0a100040f8800e1e1a900a9
:1007d000e0e1a900e0c1a800e041a900040f800009
:1007e0000480a0000490a00004a0a000040f8800d2
:1007f0000002eb00240f88000082eb00340f880019
:10080000e2e1a800140f80000440a0000450a10001
:100810000460a100140f8800c8a2a800c8c2a800e4
:10082000c8e2a800840f80000480a1000490a10009
:1008300004a0a100840f8800f1e1a900f0e1a90063
:10084000f0c1a800f041a900840f80000480a0003e
:100850000490a00004a0a000840f88000002eb0018
:10086000a40f88000082eb00b40f8800f2e1a8001a
:10087000940f80000440a0000450a1000460a10077
:10088000940f88000080fa00000006000000fa00c3
:10089000c002a800c022a800041980000450a100d2
:1008a0000460a0000470a100041988002043a8007f
:1008b0002143a9002203a800141980000480a1008c
:1008c0000490a1001419880025e3a900f4c3b30023
:1008d0000440780024e3b7002183a90014198000a4
:1008e0000420a0000430a1000440a1000450a10095
:1008f00014198800941980000400a1000410a100bc
:100900000420a000941988004519800004fe2f00df
:10091000048262004419880028e3a9004519800078
:10092000f40f2e0084826200041020000482720002
:100930004419880029e3a9000082eb0064198800ab
:100940002c03a9002c23a90085a0a90095a0a9002b
:1009500021e3a8000080fa00000006000000fa0071
:100960000002eb00540888007438210074088800e5
:100970008500a9009500a90013e1a8000080fa00f5
:10098000000006000000fa00041c80000440a100e2
:100990000450a000041c8800041c80000400a10076
:1009a0000410a000041c880004302000441c8800af
:1009b000f4012000541c8800d4002000141c88007e
:1009c00004782000241c8800047c2000341c88004b
:1009d0008480a9009480a80081e3a8000080fa0028
:1009e000000006003600f800809fbe00829fbe0017
:1009f000849fbe00869fbe000000fa00444880002d
:100a0000e00f520008003a00047824000400780047
:100a100017000700047824000402b00004007800e6
:100a20001300070007003700047c2400040078004e
:100a30000f000700047c24000402b00004007800ca
:100a40000b000700444880000400a20044488800ce
:100a50008480a9000080fa004f03be004f02be0050
:100a60004f01be004f00be003600f90000400600f6
:100a70000200fa00000f78000080fa000000060073
:100a80000000fa000400280034108800c082a8008a
:100a90002c83a800141680004422de00614262000c
:100aa0000482fb000405b000541088000002eb0033
:100ab0003404880004802000044888000209a9004a
:100ac0000229a9009600a8000080fa000000060094
:100ad000849fbe000200fa0044108000640262009d
:100ae000e00f520009003a00451080000402200087
:100af00004826200e00f520004003a0004108000fb
:100b0000044f78000209a8003c0037004410800020
:100b100064026200e00f52001f003a00451080009e
:100b20000402200004826200e00f52001a0032002a
:100b3000249020001442780061426200e04f52008d
:100b4000070032000209a9000229a8000548800018
:100b50000410800004824200044888002700370007
:100b6000249020001442780062426200e04f52005c
:100b70002100320005488000041080000442780003
:100b8000844a78000209a9000229a90004802000f3
:100b90000448880019003700441080006402620095
:100ba000e00f5200150032004510800004022000c2
:100bb00004826200e00f520010003a00041080002e
:100bc000044f780004488000144278000482fb003f
:100bd000141088000782a800000000004410800064
:100be00061026200e00f5200fcff3a000480200026
:100bf0000448880001003700000000008600a900ba
:100c00000080fa004f02be00004006000000fa001b
:100c10004bfe07001dff07005aff07004fff0700ac
:100c200097ff070072fe0700a6fe07005bfe0700a5
:100c30004006200004000700344880000402e80059
:100c400034488800faff37000600fa0020079800b1
:100c50000002eb00040f78000a0037002e0290001b
:100c600014079800030037001e0290000402e900f8
:100c7000140798001e029000e00f5200faff3a009d
:100c80001e0fe8002e0290009e027800848f520012
:100c9000f2ff39000080fa00000006000200fa00ae
:100ca000004f78001e427800e14f520004003a00e5
:100cb0001ffe070000027800050020000800370032
:100cc0001e427800e24f520004003a001afe07006c
:100cd0000002780005002000010037006022b80003
:0c0ce0000400be000080fa0000000600c6
:020000040000fa
:100cec0004090000040000000200000000000000e5
:100cfc0000000000804700004000000000000000e1
:100d0c00c04700004000000000000000080900007f
:100d1c0002000000020000000000000000080000bb
:0c0d2c00040100000000000000000000b6
:020000040000fa
:100d38000200fa00004f78002023a800a00020003d
:100d4800bfff07002023a9002003a900000000001e
:100d58000419800061026200e00f5200fcff3200bb
:100d680004188000040078000080fa0000000600e3
:00000001FF
