:020000040000fa
:080000000002040000000000f2
:020000040000fa
:100400000f8020000e7f24000e01880000000000f5
:1004100000012000200288000c000700a04a2000f4
:100420000100200011000700000020000000e00093
:100430000200320000000200000000004a04020036
:10044000000000000040da000000fe004440a90067
:10045000000020000000e000030032000000200047
:10046000a00188004440a800000006009101880017
:10047000800078000000eb0015003700e2804000ab
:1004800032a0b4009101ba00e280400032a0b40072
:100490009102ba00e280400032a0b4000002eb00fa
:1004a000472bde00f507b200602ce10004003a00a3
:1004b0000059eb008301e900fdff3e000400370016
:1004c0006128e100010032000082eb000400070017
:1004d0001101ba000200e000e8ff3a000000060047
:1004e0003159ba008301e9000c0032002159ba00e9
:1004f0008301e900080032000400e00003003a0034
:10050000e280400032a0b400f5ff370011d9ba00f4
:100510008301e900faff3a008100e800e180400031
:1005200032a0b400000006000040da000000fe0027
:020000040000fa
:100008009402000094020000940200009402000090
:100018009402000094020000940200009402000080
:100028009402000094020000940200009402000070
:100038009402000094020000940200009402000060
:020000040000fa
:020000040000fa
:0200000401f009
:04001c00dfff000002
:020000040000fa
:0200000401f009
:04001800f7000000ed
:020000040000fa
:0200000401f009
:040014005f00000089
:020000040000fa
:0200000401f009
:0400100043000000a9
:020000040000fa
:0200000401f009
:04000c0001000000ef
:020000040000fa
:0200000401f009
:0400080007000000ed
:020000040000fa
:0200000401f009
:04000400cf00000029
:020000040000fa
:0200000401f009
:04000000cf0000002d
:020000040000fa
:100530000000fa00c082a8002c83a80007e2a800ef
:100540000080fa00000006000000fa00c002a800c7
:10055000c022a8002c03a9002c23a9001419800094
:1005600004d0a10004e0a10004f0a1001419880047
:10057000141980000480a0000490a10014198800c0
:100580002043a80021e3a8000080fa000000060034
:100590000000fa00253a800004fe2f000482620069
:1005a000243a8800353a800004e02f0084826200fb
:1005b000b402200004827200343a8800243a800099
:1005c0000460a1000470a100243a8800000000002b
:1005d000153a80000402200004826200e00f5200fd
:1005e000fbff32000080fa00000006000000fa0065
:1005f00084312000240e8800840c2000b40e880072
:10060000840c2000c40e8800c881a800c801a8007e
:10061000c8a1a800c821a800c1e1a8000080fa0074
:10062000000006000000fa00c062a900c082a90014
:10063000c442a800c462a8000080fa0000000600be
:100640000000fa00e534800004fe2f0004826200fe
:100650000410a000e4348800e5348000f40f2e007c
:10066000848262000430200004827200e434880036
:10067000f534800004fe2f00048262000420a000f4
:10068000f43488000535800004fe2f0004826200e7
:100690005400b3000435880005358000f40f2e00a7
:1006a00084826200046020000482720004358800a5
:1006b0001535800004fe2f00048262007400b30030
:1006c000143588000080fa00000006000000fa00df
:1006d000c842a800c862a800c882a800040f800011
:1006e0000480a1000490a10004a0a100040f8800d0
:1006f000e1e1a900e0e1a900e0c1a800e041a80013
:10070000040f80000480a1000490a00004a0a000b9
:10071000040f88000002eb00240f88000410200062
:10072000340f8800e2e1a800140f80000440a0000c
:100730000450a1000460a100140f8800c8a2a80002
:10074000c8c2a800c8e2a800840f80000480a100ed
:100750000490a10004a0a100840f8800f1e1a90089
:10076000f0e1a900f0c1a800f041a800840f8000ca
:100770000480a1000490a00004a0a000840f8800c1
:100780000002eb00a40f880004102000b40f8800c2
:10079000f2e1a800940f80000440a0000450a100e2
:1007a0000460a100940f88000080fa000000060099
:1007b0000000fa00c842a800c862a800c882a800c9
:1007c000040f80000480a1000490a10004a0a100f7
:1007d000040f8800e1e1a900e0e1a900e0c1a80060
:1007e000e041a900040f80000480a0000490a00054
:1007f00004a0a000040f88000002eb00240f880072
:100800000082eb00340f8800e2e1a800140f8000a2
:100810000440a0000450a1000460a100140f88004f
:10082000c8a2a800c8c2a800c8e2a800840f80001f
:100830000480a1000490a10004a0a100840f8800fe
:10084000f1e1a900f0e1a900f0c1a800f041a90080
:10085000840f80000480a0000490a00004a0a000e9
:10086000840f88000002eb00a40f88000082eb00d8
:10087000b40f8800f2e1a800940f80000440a000ab
:100880000450a1000460a100940f88000080fa00c9
:10089000000006000000fa003dff07002aff0700e5
:1008a00052ff07005fff0700ffff37000600fa0056
:1008b000200798000002eb00040f78000a003700c0
:1008c0002e02900014079800030037001e029000cb
:1008d0000402e900140798001e029000e00f520085
:1008e000faff3a001e0fe8002e0290009e027800e8
:1008f000848f5200f2ff39000080fa0000000600e9
:100900000200fa00004f78001e427800e04f5200cb
:1009100001003a003003a8001e427800e14f520067
:1009200001003a003023a8002023a9002003a900d9
:10093000000000000419800061026200e00f520014
:10094000fcff3a0004188000040078000080fa00e0
:04095000000006009d
:020000040000fa
:04095400000000009f
:00000001FF
