:020000040000fa
:080000000002040000000000f2
:020000040000fa
:100400000f8020000e7f24000e01880000000000f5
:1004100000012000200288000c0007004036200068
:100420000100200011000700000020000000e00093
:100430000200320000000200000000001003020071
:10044000000000000040da000000fe004440a90067
:10045000000020000000e000030032000000200047
:10046000a00188004440a800000006009101880017
:10047000800078000000eb0015003700e2804000ab
:1004800032a0b4009101ba00e280400032a0b40072
:100490009102ba00e280400032a0b4000002eb00fa
:1004a000472bde00f507b200602ce10004003a00a3
:1004b0000059eb008301e900fdff3e000400370016
:1004c0006128e100010032000082eb000400070017
:1004d0001101ba000200e000e8ff3a000000060047
:1004e0003159ba008301e9000c0032002159ba00e9
:1004f0008301e900080032000400e00003003a0034
:10050000e280400032a0b400f5ff370011d9ba00f4
:100510008301e900faff3a008100e800e180400031
:1005200032a0b400000006000040da000000fe0027
:020000040000fa
:100008009402000094020000940200009402000090
:100018009402000094020000940200009402000080
:100028009402000094020000940200009402000070
:100038009402000094020000940200009402000060
:020000040000fa
:020000040000fa
:0200000401f009
:04001c00dfff000002
:020000040000fa
:0200000401f009
:04001800f7000000ed
:020000040000fa
:0200000401f009
:040014005f00000089
:020000040000fa
:0200000401f009
:0400100043000000a9
:020000040000fa
:0200000401f009
:04000c0001000000ef
:020000040000fa
:0200000401f009
:0400080007000000ed
:020000040000fa
:0200000401f009
:04000400cf00000029
:020000040000fa
:0200000401f009
:04000000cf0000002d
:020000040000fa
:100530000000fa00c082a8002c83a80007e2a800ef
:100540000080fa00000006000000fa00c002a800c7
:10055000c022a8002c03a9002c23a9000080fa00c7
:10056000000006000000fa000080fa00000006000b
:100570000000fa00253a800004fe2f000482620089
:10058000243a8800353a800004e02f00848262001b
:10059000b402200004827200343a8800243a8000b9
:1005a0000460a1000470a100243a8800000000004b
:1005b000153a80000402200004826200e00f52001d
:1005c000fbff32000080fa00000006000000fa0085
:1005d00084312000240e8800840c2000b40e880092
:1005e000840c2000c40e8800c881a800c801a8009f
:1005f000c8a1a800c821a800c1e1a8000080fa0095
:10060000000006000000fa00c062a900c082a90034
:10061000c442a800c462a8000080fa0000000600de
:100620000400fa00843e2000040f7800d0ff070089
:10063000e6ff0700f3ff07000002eb001407980035
:100640001e0078000b0007001e029000e00f520011
:1006500002003a00c442a90001003700c462a900a8
:100660001e00780003000700c442a800c462a8006e
:10067000f3ff37000600fa00200798000002eb00a5
:10068000040f78000a0037002e029000140798002b
:10069000030037001e0290000402e90014079800ce
:1006a0001e029000e00f5200faff3a001e0fe80011
:1006b0002e0290009e027800848f5200f2ff3900d3
:0806c0000080fa0000000600b2
:020000040000fa
:0406c800000000002e
:00000001FF
